{
  "_format": "hh-sol-artifact-1",
  "contractName": "CrowdFunding",
  "sourceName": "contracts/CrowdFunding.sol",
  "abi": [
    {
      "anonymous": false,
      "inputs": [
        {
          "indexed": true,
          "internalType": "uint256",
          "name": "campaignId",
          "type": "uint256"
        }
      ],
      "name": "CampaignClosed",
      "type": "event"
    },
    {
      "anonymous": false,
      "inputs": [
        {
          "indexed": true,
          "internalType": "address",
          "name": "owner",
          "type": "address"
        },
        {
          "indexed": true,
          "internalType": "uint256",
          "name": "campaignId",
          "type": "uint256"
        },
        {
          "indexed": false,
          "internalType": "string",
          "name": "title",
          "type": "string"
        }
      ],
      "name": "CampaignCreated",
      "type": "event"
    },
    {
      "anonymous": false,
      "inputs": [
        {
          "indexed": true,
          "internalType": "uint256",
          "name": "campaignId",
          "type": "uint256"
        },
        {
          "indexed": true,
          "internalType": "address",
          "name": "donator",
          "type": "address"
        },
        {
          "indexed": false,
          "internalType": "uint256",
          "name": "amount",
          "type": "uint256"
        }
      ],
      "name": "DonateReceived",
      "type": "event"
    },
    {
      "anonymous": false,
      "inputs": [
        {
          "indexed": true,
          "internalType": "uint256",
          "name": "campaignId",
          "type": "uint256"
        },
        {
          "indexed": true,
          "internalType": "address",
          "name": "owner",
          "type": "address"
        },
        {
          "indexed": false,
          "internalType": "uint256",
          "name": "amount",
          "type": "uint256"
        }
      ],
      "name": "Withdrawal",
      "type": "event"
    },
    {
      "inputs": [],
      "name": "campaignCount",
      "outputs": [
        {
          "internalType": "uint256",
          "name": "",
          "type": "uint256"
        }
      ],
      "stateMutability": "view",
      "type": "function"
    },
    {
      "inputs": [
        {
          "internalType": "uint256",
          "name": "",
          "type": "uint256"
        }
      ],
      "name": "campaigns",
      "outputs": [
        {
          "internalType": "address",
          "name": "owner",
          "type": "address"
        },
        {
          "internalType": "string",
          "name": "title",
          "type": "string"
        },
        {
          "internalType": "string",
          "name": "description",
          "type": "string"
        },
        {
          "internalType": "string",
          "name": "imageUrl",
          "type": "string"
        },
        {
          "internalType": "uint256",
          "name": "target",
          "type": "uint256"
        },
        {
          "internalType": "uint256",
          "name": "collectedAmount",
          "type": "uint256"
        },
        {
          "internalType": "uint256",
          "name": "withdrawedAmount",
          "type": "uint256"
        },
        {
          "internalType": "uint256",
          "name": "deadline",
          "type": "uint256"
        }
      ],
      "stateMutability": "view",
      "type": "function"
    },
    {
      "inputs": [
        {
          "internalType": "uint256",
          "name": "_id",
          "type": "uint256"
        }
      ],
      "name": "closeCampaign",
      "outputs": [],
      "stateMutability": "nonpayable",
      "type": "function"
    },
    {
      "inputs": [
        {
          "internalType": "string",
          "name": "_title",
          "type": "string"
        },
        {
          "internalType": "string",
          "name": "_description",
          "type": "string"
        },
        {
          "internalType": "string",
          "name": "_imageUrl",
          "type": "string"
        },
        {
          "internalType": "uint256",
          "name": "_target",
          "type": "uint256"
        },
        {
          "internalType": "uint256",
          "name": "_deadline",
          "type": "uint256"
        }
      ],
      "name": "createCampaign",
      "outputs": [
        {
          "internalType": "uint256",
          "name": "",
          "type": "uint256"
        }
      ],
      "stateMutability": "nonpayable",
      "type": "function"
    },
    {
      "inputs": [
        {
          "internalType": "uint256",
          "name": "_id",
          "type": "uint256"
        }
      ],
      "name": "donate",
      "outputs": [],
      "stateMutability": "payable",
      "type": "function"
    },
    {
      "inputs": [],
      "name": "getCampaigns",
      "outputs": [
        {
          "components": [
            {
              "internalType": "address",
              "name": "owner",
              "type": "address"
            },
            {
              "internalType": "string",
              "name": "title",
              "type": "string"
            },
            {
              "internalType": "string",
              "name": "description",
              "type": "string"
            },
            {
              "internalType": "string",
              "name": "imageUrl",
              "type": "string"
            },
            {
              "internalType": "uint256",
              "name": "target",
              "type": "uint256"
            },
            {
              "internalType": "uint256",
              "name": "collectedAmount",
              "type": "uint256"
            },
            {
              "internalType": "uint256",
              "name": "withdrawedAmount",
              "type": "uint256"
            },
            {
              "internalType": "uint256",
              "name": "deadline",
              "type": "uint256"
            },
            {
              "components": [
                {
                  "internalType": "address",
                  "name": "donator",
                  "type": "address"
                },
                {
                  "internalType": "uint256",
                  "name": "amount",
                  "type": "uint256"
                }
              ],
              "internalType": "struct CrowdFunding.Donation[]",
              "name": "donations",
              "type": "tuple[]"
            }
          ],
          "internalType": "struct CrowdFunding.Campaign[]",
          "name": "",
          "type": "tuple[]"
        }
      ],
      "stateMutability": "view",
      "type": "function"
    },
    {
      "inputs": [
        {
          "internalType": "uint256",
          "name": "_id",
          "type": "uint256"
        }
      ],
      "name": "getDonations",
      "outputs": [
        {
          "components": [
            {
              "internalType": "address",
              "name": "donator",
              "type": "address"
            },
            {
              "internalType": "uint256",
              "name": "amount",
              "type": "uint256"
            }
          ],
          "internalType": "struct CrowdFunding.Donation[]",
          "name": "",
          "type": "tuple[]"
        }
      ],
      "stateMutability": "view",
      "type": "function"
    },
    {
      "inputs": [],
      "name": "totalCollected",
      "outputs": [
        {
          "internalType": "uint256",
          "name": "",
          "type": "uint256"
        }
      ],
      "stateMutability": "view",
      "type": "function"
    },
    {
      "inputs": [
        {
          "internalType": "uint256",
          "name": "_id",
          "type": "uint256"
        },
        {
          "internalType": "uint256",
          "name": "_amount",
          "type": "uint256"
        }
      ],
      "name": "withdraw",
      "outputs": [],
      "stateMutability": "nonpayable",
      "type": "function"
    }
  ],
  "bytecode": "0x608060405234801561001057600080fd5b50611d34806100206000396000f3fe6080604052600436106100865760003560e01c8063980f2e6611610059578063980f2e6614610160578063a6b036331461019d578063b0e1c1e1146101c8578063e29eb836146101f1578063f14faf6f1461021c57610086565b8063141961bc1461008b578063441a3e70146100cf578063596d9ce2146100f85780637274e30d14610135575b600080fd5b34801561009757600080fd5b506100b260048036038101906100ad9190610f3a565b610238565b6040516100c6989796959493929190611047565b60405180910390f35b3480156100db57600080fd5b506100f660048036038101906100f191906110da565b610438565b005b34801561010457600080fd5b5061011f600480360381019061011a9190610f3a565b610601565b60405161012c9190611216565b60405180910390f35b34801561014157600080fd5b5061014a6106d6565b6040516101579190611238565b60405180910390f35b34801561016c57600080fd5b5061018760048036038101906101829190611388565b6106dc565b6040516101949190611238565b60405180910390f35b3480156101a957600080fd5b506101b2610895565b6040516101bf91906116ac565b60405180910390f35b3480156101d457600080fd5b506101ef60048036038101906101ea9190610f3a565b610c49565b005b3480156101fd57600080fd5b50610206610d40565b6040516102139190611238565b60405180910390f35b61023660048036038101906102319190610f3a565b610d46565b005b60026020528060005260406000206000915090508060000160009054906101000a900473ffffffffffffffffffffffffffffffffffffffff1690806001018054610281906116fd565b80601f01602080910402602001604051908101604052809291908181526020018280546102ad906116fd565b80156102fa5780601f106102cf576101008083540402835291602001916102fa565b820191906000526020600020905b8154815290600101906020018083116102dd57829003601f168201915b50505050509080600201805461030f906116fd565b80601f016020809104026020016040519081016040528092919081815260200182805461033b906116fd565b80156103885780601f1061035d57610100808354040283529160200191610388565b820191906000526020600020905b81548152906001019060200180831161036b57829003601f168201915b50505050509080600301805461039d906116fd565b80601f01602080910402602001604051908101604052809291908181526020018280546103c9906116fd565b80156104165780601f106103eb57610100808354040283529160200191610416565b820191906000526020600020905b8154815290600101906020018083116103f957829003601f168201915b5050505050908060040154908060050154908060060154908060070154905088565b816002600082815260200190815260200160002060000160009054906101000a900473ffffffffffffffffffffffffffffffffffffffff1673ffffffffffffffffffffffffffffffffffffffff163373ffffffffffffffffffffffffffffffffffffffff16146104dd576040517f08c379a00000000000000000000000000000000000000000000000000000000081526004016104d4906117a0565b60405180910390fd5b60006002600085815260200190815260200160002090508060060154816005015461050891906117ef565b83111561054a576040517f08c379a0000000000000000000000000000000000000000000000000000000008152600401610541906118bb565b60405180910390fd5b8281600601600082825461055e91906118db565b925050819055503373ffffffffffffffffffffffffffffffffffffffff166108fc849081150290604051600060405180830381858888f193505050501580156105ab573d6000803e3d6000fd5b503373ffffffffffffffffffffffffffffffffffffffff16847f37e8063b72a944a76de602f32b82fd8c2a1c6f99564c727ffaf913c7762cd420856040516105f39190611238565b60405180910390a350505050565b606060026000838152602001908152602001600020600801805480602002602001604051908101604052809291908181526020016000905b828210156106cb57838290600052602060002090600202016040518060400160405290816000820160009054906101000a900473ffffffffffffffffffffffffffffffffffffffff1673ffffffffffffffffffffffffffffffffffffffff1673ffffffffffffffffffffffffffffffffffffffff16815260200160018201548152505081526020019060010190610639565b505050509050919050565b60015481565b6000428211610720576040517f08c379a00000000000000000000000000000000000000000000000000000000081526004016107179061195b565b60405180910390fd5b60008311610763576040517f08c379a000000000000000000000000000000000000000000000000000000000815260040161075a906119c7565b60405180910390fd5b60006002600060015481526020019081526020016000209050338160000160006101000a81548173ffffffffffffffffffffffffffffffffffffffff021916908373ffffffffffffffffffffffffffffffffffffffff160217905550868160010190816107d09190611b93565b50858160020190816107e29190611b93565b50848160030190816107f49190611b93565b508281600701819055508381600401819055506001600081548092919061081a90611c65565b91905055506001805461082d91906117ef565b3373ffffffffffffffffffffffffffffffffffffffff167f0ebe94f361ce4504efd3def3f3b3536780036866339485a26cf48e95ff61b6a5896040516108739190611cad565b60405180910390a36001805461088991906117ef565b91505095945050505050565b6060600060015467ffffffffffffffff8111156108b5576108b461125d565b5b6040519080825280602002602001820160405280156108ee57816020015b6108db610e8e565b8152602001906001900390816108d35790505b50905060005b600154811015610c415760026000828152602001908152602001600020604051806101200160405290816000820160009054906101000a900473ffffffffffffffffffffffffffffffffffffffff1673ffffffffffffffffffffffffffffffffffffffff1673ffffffffffffffffffffffffffffffffffffffff168152602001600182018054610983906116fd565b80601f01602080910402602001604051908101604052809291908181526020018280546109af906116fd565b80156109fc5780601f106109d1576101008083540402835291602001916109fc565b820191906000526020600020905b8154815290600101906020018083116109df57829003601f168201915b50505050508152602001600282018054610a15906116fd565b80601f0160208091040260200160405190810160405280929190818152602001828054610a41906116fd565b8015610a8e5780601f10610a6357610100808354040283529160200191610a8e565b820191906000526020600020905b815481529060010190602001808311610a7157829003601f168201915b50505050508152602001600382018054610aa7906116fd565b80601f0160208091040260200160405190810160405280929190818152602001828054610ad3906116fd565b8015610b205780601f10610af557610100808354040283529160200191610b20565b820191906000526020600020905b815481529060010190602001808311610b0357829003601f168201915b505050505081526020016004820154815260200160058201548152602001600682015481526020016007820154815260200160088201805480602002602001604051908101604052809291908181526020016000905b82821015610c0857838290600052602060002090600202016040518060400160405290816000820160009054906101000a900473ffffffffffffffffffffffffffffffffffffffff1673ffffffffffffffffffffffffffffffffffffffff1673ffffffffffffffffffffffffffffffffffffffff16815260200160018201548152505081526020019060010190610b76565b5050505081525050828281518110610c2357610c22611ccf565b5b60200260200101819052508080610c3990611c65565b9150506108f4565b508091505090565b806002600082815260200190815260200160002060000160009054906101000a900473ffffffffffffffffffffffffffffffffffffffff1673ffffffffffffffffffffffffffffffffffffffff163373ffffffffffffffffffffffffffffffffffffffff1614610cee576040517f08c379a0000000000000000000000000000000000000000000000000000000008152600401610ce5906117a0565b60405180910390fd5b6000600260008481526020019081526020016000209050428160070181905550827f5e6eb33a418de5dbbc17f989f7ae362cdfbb1748c5d603137c767027a354edbc60405160405180910390a2505050565b60005481565b60006002600083815260200190815260200160002090508060080160405180604001604052803373ffffffffffffffffffffffffffffffffffffffff16815260200134815250908060018154018082558091505060019003906000526020600020906002020160009091909190915060008201518160000160006101000a81548173ffffffffffffffffffffffffffffffffffffffff021916908373ffffffffffffffffffffffffffffffffffffffff16021790555060208201518160010155505034816005016000828254610e1c91906118db565b9250508190555034600080828254610e3491906118db565b925050819055503373ffffffffffffffffffffffffffffffffffffffff16827fd043fbd3e5b60b9520e258ac2112e48c46f68e7d1770c911ba440b91e2c8c6c534604051610e829190611238565b60405180910390a35050565b604051806101200160405280600073ffffffffffffffffffffffffffffffffffffffff16815260200160608152602001606081526020016060815260200160008152602001600081526020016000815260200160008152602001606081525090565b6000604051905090565b600080fd5b600080fd5b6000819050919050565b610f1781610f04565b8114610f2257600080fd5b50565b600081359050610f3481610f0e565b92915050565b600060208284031215610f5057610f4f610efa565b5b6000610f5e84828501610f25565b91505092915050565b600073ffffffffffffffffffffffffffffffffffffffff82169050919050565b6000610f9282610f67565b9050919050565b610fa281610f87565b82525050565b600081519050919050565b600082825260208201905092915050565b60005b83811015610fe2578082015181840152602081019050610fc7565b60008484015250505050565b6000601f19601f8301169050919050565b600061100a82610fa8565b6110148185610fb3565b9350611024818560208601610fc4565b61102d81610fee565b840191505092915050565b61104181610f04565b82525050565b60006101008201905061105d600083018b610f99565b818103602083015261106f818a610fff565b905081810360408301526110838189610fff565b905081810360608301526110978188610fff565b90506110a66080830187611038565b6110b360a0830186611038565b6110c060c0830185611038565b6110cd60e0830184611038565b9998505050505050505050565b600080604083850312156110f1576110f0610efa565b5b60006110ff85828601610f25565b925050602061111085828601610f25565b9150509250929050565b600081519050919050565b600082825260208201905092915050565b6000819050602082019050919050565b61114f81610f87565b82525050565b61115e81610f04565b82525050565b60408201600082015161117a6000850182611146565b50602082015161118d6020850182611155565b50505050565b600061119f8383611164565b60408301905092915050565b6000602082019050919050565b60006111c38261111a565b6111cd8185611125565b93506111d883611136565b8060005b838110156112095781516111f08882611193565b97506111fb836111ab565b9250506001810190506111dc565b5085935050505092915050565b6000602082019050818103600083015261123081846111b8565b905092915050565b600060208201905061124d6000830184611038565b92915050565b600080fd5b600080fd5b7f4e487b7100000000000000000000000000000000000000000000000000000000600052604160045260246000fd5b61129582610fee565b810181811067ffffffffffffffff821117156112b4576112b361125d565b5b80604052505050565b60006112c7610ef0565b90506112d3828261128c565b919050565b600067ffffffffffffffff8211156112f3576112f261125d565b5b6112fc82610fee565b9050602081019050919050565b82818337600083830152505050565b600061132b611326846112d8565b6112bd565b90508281526020810184848401111561134757611346611258565b5b611352848285611309565b509392505050565b600082601f83011261136f5761136e611253565b5b813561137f848260208601611318565b91505092915050565b600080600080600060a086880312156113a4576113a3610efa565b5b600086013567ffffffffffffffff8111156113c2576113c1610eff565b5b6113ce8882890161135a565b955050602086013567ffffffffffffffff8111156113ef576113ee610eff565b5b6113fb8882890161135a565b945050604086013567ffffffffffffffff81111561141c5761141b610eff565b5b6114288882890161135a565b935050606061143988828901610f25565b925050608061144a88828901610f25565b9150509295509295909350565b600081519050919050565b600082825260208201905092915050565b6000819050602082019050919050565b600082825260208201905092915050565b600061149f82610fa8565b6114a98185611483565b93506114b9818560208601610fc4565b6114c281610fee565b840191505092915050565b600082825260208201905092915050565b60006114e98261111a565b6114f381856114cd565b93506114fe83611136565b8060005b8381101561152f5781516115168882611193565b9750611521836111ab565b925050600181019050611502565b5085935050505092915050565b6000610120830160008301516115556000860182611146565b506020830151848203602086015261156d8282611494565b915050604083015184820360408601526115878282611494565b915050606083015184820360608601526115a18282611494565b91505060808301516115b66080860182611155565b5060a08301516115c960a0860182611155565b5060c08301516115dc60c0860182611155565b5060e08301516115ef60e0860182611155565b5061010083015184820361010086015261160982826114de565b9150508091505092915050565b6000611622838361153c565b905092915050565b6000602082019050919050565b600061164282611457565b61164c8185611462565b93508360208202850161165e85611473565b8060005b8581101561169a578484038952815161167b8582611616565b94506116868361162a565b925060208a01995050600181019050611662565b50829750879550505050505092915050565b600060208201905081810360008301526116c68184611637565b905092915050565b7f4e487b7100000000000000000000000000000000000000000000000000000000600052602260045260246000fd5b6000600282049050600182168061171557607f821691505b602082108103611728576117276116ce565b5b50919050565b7f596f7520617265206e6f7420746865206f776e6572206f66207468697320636160008201527f6d706169676e2e00000000000000000000000000000000000000000000000000602082015250565b600061178a602783610fb3565b91506117958261172e565b604082019050919050565b600060208201905081810360008301526117b98161177d565b9050919050565b7f4e487b7100000000000000000000000000000000000000000000000000000000600052601160045260246000fd5b60006117fa82610f04565b915061180583610f04565b925082820390508181111561181d5761181c6117c0565b5b92915050565b7f54686520616d6f756e742077697468647261776e206d757374206265206c657360008201527f73207468616e206f7220657175616c20746f207468652077697468647261776e60208201527f61626c6520616d6f756e742e0000000000000000000000000000000000000000604082015250565b60006118a5604c83610fb3565b91506118b082611823565b606082019050919050565b600060208201905081810360008301526118d481611898565b9050919050565b60006118e682610f04565b91506118f183610f04565b9250828201905080821115611909576119086117c0565b5b92915050565b7f446561646c696e65206d75737420626520696e20746865206675747572652e00600082015250565b6000611945601f83610fb3565b91506119508261190f565b602082019050919050565b6000602082019050818103600083015261197481611938565b9050919050565b7f546172676574206d75737420626520626967676572207468616e20302e000000600082015250565b60006119b1601d83610fb3565b91506119bc8261197b565b602082019050919050565b600060208201905081810360008301526119e0816119a4565b9050919050565b60008190508160005260206000209050919050565b60006020601f8301049050919050565b600082821b905092915050565b600060088302611a497fffffffffffffffffffffffffffffffffffffffffffffffffffffffffffffffff82611a0c565b611a538683611a0c565b95508019841693508086168417925050509392505050565b6000819050919050565b6000611a90611a8b611a8684610f04565b611a6b565b610f04565b9050919050565b6000819050919050565b611aaa83611a75565b611abe611ab682611a97565b848454611a19565b825550505050565b600090565b611ad3611ac6565b611ade818484611aa1565b505050565b5b81811015611b0257611af7600082611acb565b600181019050611ae4565b5050565b601f821115611b4757611b18816119e7565b611b21846119fc565b81016020851015611b30578190505b611b44611b3c856119fc565b830182611ae3565b50505b505050565b600082821c905092915050565b6000611b6a60001984600802611b4c565b1980831691505092915050565b6000611b838383611b59565b9150826002028217905092915050565b611b9c82610fa8565b67ffffffffffffffff811115611bb557611bb461125d565b5b611bbf82546116fd565b611bca828285611b06565b600060209050601f831160018114611bfd5760008415611beb578287015190505b611bf58582611b77565b865550611c5d565b601f198416611c0b866119e7565b60005b82811015611c3357848901518255600182019150602085019450602081019050611c0e565b86831015611c505784890151611c4c601f891682611b59565b8355505b6001600288020188555050505b505050505050565b6000611c7082610f04565b91507fffffffffffffffffffffffffffffffffffffffffffffffffffffffffffffffff8203611ca257611ca16117c0565b5b600182019050919050565b60006020820190508181036000830152611cc78184610fff565b905092915050565b7f4e487b7100000000000000000000000000000000000000000000000000000000600052603260045260246000fdfea264697066735822122025ae61ac762f0e805f579408d892ab57fbdc8f7b2f316ce986875f091b09974d64736f6c63430008130033",
  "linkReferences": {},
  "deployedLinkReferences": {}
}